{
  "contractName": "AscendNFT",
  "abi": [
    {
      "inputs": [],
      "stateMutability": "nonpayable",
      "type": "constructor"
    },
    {
      "anonymous": false,
      "inputs": [
        {
          "indexed": true,
          "internalType": "address",
          "name": "owner",
          "type": "address"
        },
        {
          "indexed": true,
          "internalType": "address",
          "name": "approved",
          "type": "address"
        },
        {
          "indexed": true,
          "internalType": "uint256",
          "name": "tokenId",
          "type": "uint256"
        }
      ],
      "name": "Approval",
      "type": "event"
    },
    {
      "anonymous": false,
      "inputs": [
        {
          "indexed": true,
          "internalType": "address",
          "name": "owner",
          "type": "address"
        },
        {
          "indexed": true,
          "internalType": "address",
          "name": "operator",
          "type": "address"
        },
        {
          "indexed": false,
          "internalType": "bool",
          "name": "approved",
          "type": "bool"
        }
      ],
      "name": "ApprovalForAll",
      "type": "event"
    },
    {
      "anonymous": false,
      "inputs": [
        {
          "indexed": true,
          "internalType": "address",
          "name": "previousOwner",
          "type": "address"
        },
        {
          "indexed": true,
          "internalType": "address",
          "name": "newOwner",
          "type": "address"
        }
      ],
      "name": "OwnershipTransferred",
      "type": "event"
    },
    {
      "anonymous": false,
      "inputs": [
        {
          "indexed": true,
          "internalType": "address",
          "name": "from",
          "type": "address"
        },
        {
          "indexed": true,
          "internalType": "address",
          "name": "to",
          "type": "address"
        },
        {
          "indexed": true,
          "internalType": "uint256",
          "name": "tokenId",
          "type": "uint256"
        }
      ],
      "name": "Transfer",
      "type": "event"
    },
    {
      "inputs": [
        {
          "internalType": "address",
          "name": "to",
          "type": "address"
        },
        {
          "internalType": "uint256",
          "name": "tokenId",
          "type": "uint256"
        }
      ],
      "name": "approve",
      "outputs": [],
      "stateMutability": "nonpayable",
      "type": "function"
    },
    {
      "inputs": [
        {
          "internalType": "address",
          "name": "owner",
          "type": "address"
        }
      ],
      "name": "balanceOf",
      "outputs": [
        {
          "internalType": "uint256",
          "name": "",
          "type": "uint256"
        }
      ],
      "stateMutability": "view",
      "type": "function"
    },
    {
      "inputs": [
        {
          "internalType": "uint256",
          "name": "tokenId",
          "type": "uint256"
        }
      ],
      "name": "getApproved",
      "outputs": [
        {
          "internalType": "address",
          "name": "",
          "type": "address"
        }
      ],
      "stateMutability": "view",
      "type": "function"
    },
    {
      "inputs": [
        {
          "internalType": "address",
          "name": "owner",
          "type": "address"
        },
        {
          "internalType": "address",
          "name": "operator",
          "type": "address"
        }
      ],
      "name": "isApprovedForAll",
      "outputs": [
        {
          "internalType": "bool",
          "name": "",
          "type": "bool"
        }
      ],
      "stateMutability": "view",
      "type": "function"
    },
    {
      "inputs": [],
      "name": "name",
      "outputs": [
        {
          "internalType": "string",
          "name": "",
          "type": "string"
        }
      ],
      "stateMutability": "view",
      "type": "function"
    },
    {
      "inputs": [],
      "name": "owner",
      "outputs": [
        {
          "internalType": "address",
          "name": "",
          "type": "address"
        }
      ],
      "stateMutability": "view",
      "type": "function"
    },
    {
      "inputs": [
        {
          "internalType": "uint256",
          "name": "tokenId",
          "type": "uint256"
        }
      ],
      "name": "ownerOf",
      "outputs": [
        {
          "internalType": "address",
          "name": "",
          "type": "address"
        }
      ],
      "stateMutability": "view",
      "type": "function"
    },
    {
      "inputs": [],
      "name": "renounceOwnership",
      "outputs": [],
      "stateMutability": "nonpayable",
      "type": "function"
    },
    {
      "inputs": [
        {
          "internalType": "address",
          "name": "from",
          "type": "address"
        },
        {
          "internalType": "address",
          "name": "to",
          "type": "address"
        },
        {
          "internalType": "uint256",
          "name": "tokenId",
          "type": "uint256"
        }
      ],
      "name": "safeTransferFrom",
      "outputs": [],
      "stateMutability": "nonpayable",
      "type": "function"
    },
    {
      "inputs": [
        {
          "internalType": "address",
          "name": "from",
          "type": "address"
        },
        {
          "internalType": "address",
          "name": "to",
          "type": "address"
        },
        {
          "internalType": "uint256",
          "name": "tokenId",
          "type": "uint256"
        },
        {
          "internalType": "bytes",
          "name": "data",
          "type": "bytes"
        }
      ],
      "name": "safeTransferFrom",
      "outputs": [],
      "stateMutability": "nonpayable",
      "type": "function"
    },
    {
      "inputs": [
        {
          "internalType": "address",
          "name": "operator",
          "type": "address"
        },
        {
          "internalType": "bool",
          "name": "approved",
          "type": "bool"
        }
      ],
      "name": "setApprovalForAll",
      "outputs": [],
      "stateMutability": "nonpayable",
      "type": "function"
    },
    {
      "inputs": [
        {
          "internalType": "bytes4",
          "name": "interfaceId",
          "type": "bytes4"
        }
      ],
      "name": "supportsInterface",
      "outputs": [
        {
          "internalType": "bool",
          "name": "",
          "type": "bool"
        }
      ],
      "stateMutability": "view",
      "type": "function"
    },
    {
      "inputs": [],
      "name": "symbol",
      "outputs": [
        {
          "internalType": "string",
          "name": "",
          "type": "string"
        }
      ],
      "stateMutability": "view",
      "type": "function"
    },
    {
      "inputs": [
        {
          "internalType": "uint256",
          "name": "tokenId",
          "type": "uint256"
        }
      ],
      "name": "tokenURI",
      "outputs": [
        {
          "internalType": "string",
          "name": "",
          "type": "string"
        }
      ],
      "stateMutability": "view",
      "type": "function"
    },
    {
      "inputs": [
        {
          "internalType": "address",
          "name": "from",
          "type": "address"
        },
        {
          "internalType": "address",
          "name": "to",
          "type": "address"
        },
        {
          "internalType": "uint256",
          "name": "tokenId",
          "type": "uint256"
        }
      ],
      "name": "transferFrom",
      "outputs": [],
      "stateMutability": "nonpayable",
      "type": "function"
    },
    {
      "inputs": [
        {
          "internalType": "address",
          "name": "newOwner",
          "type": "address"
        }
      ],
      "name": "transferOwnership",
      "outputs": [],
      "stateMutability": "nonpayable",
      "type": "function"
    },
    {
      "inputs": [
        {
          "internalType": "address",
          "name": "to",
          "type": "address"
        }
      ],
      "name": "safeMint",
      "outputs": [],
      "stateMutability": "nonpayable",
      "type": "function"
    },
    {
      "inputs": [
        {
          "internalType": "uint256",
          "name": "tokenId",
          "type": "uint256"
        }
      ],
      "name": "canjearNFT",
      "outputs": [],
      "stateMutability": "nonpayable",
      "type": "function"
    }
  ],
  "bytecode": "0x6080604052604051806060016040528060001515151581526020016000151515158152602001600015151515815250600790600362000040929190620001d5565b503480156200004e57600080fd5b506040518060400160405280600981526020017f417363656e644e465400000000000000000000000000000000000000000000008152506040518060400160405280600481526020017f414e4654000000000000000000000000000000000000000000000000000000008152508160009081620000cc91906200050e565b508060019081620000de91906200050e565b50505062000101620000f56200010760201b60201c565b6200010f60201b60201c565b620005f5565b600033905090565b6000600660009054906101000a900473ffffffffffffffffffffffffffffffffffffffff16905081600660006101000a81548173ffffffffffffffffffffffffffffffffffffffff021916908373ffffffffffffffffffffffffffffffffffffffff1602179055508173ffffffffffffffffffffffffffffffffffffffff168173ffffffffffffffffffffffffffffffffffffffff167f8be0079c531659141344cd1fd0a4f28419497f9722a3daafe3b4186f6b6457e060405160405180910390a35050565b826003601f01602090048101928215620002625791602002820160005b838211156200023157835183826101000a81548160ff0219169083151502179055509260200192600101602081600001049283019260010302620001f2565b8015620002605782816101000a81549060ff021916905560010160208160000104928301926001030262000231565b505b50905062000271919062000275565b5090565b5b808211156200029057600081600090555060010162000276565b5090565b600081519050919050565b7f4e487b7100000000000000000000000000000000000000000000000000000000600052604160045260246000fd5b7f4e487b7100000000000000000000000000000000000000000000000000000000600052602260045260246000fd5b600060028204905060018216806200031657607f821691505b6020821081036200032c576200032b620002ce565b5b50919050565b60008190508160005260206000209050919050565b60006020601f8301049050919050565b600082821b905092915050565b600060088302620003967fffffffffffffffffffffffffffffffffffffffffffffffffffffffffffffffff8262000357565b620003a2868362000357565b95508019841693508086168417925050509392505050565b6000819050919050565b6000819050919050565b6000620003ef620003e9620003e384620003ba565b620003c4565b620003ba565b9050919050565b6000819050919050565b6200040b83620003ce565b620004236200041a82620003f6565b84845462000364565b825550505050565b600090565b6200043a6200042b565b6200044781848462000400565b505050565b5b818110156200046f576200046360008262000430565b6001810190506200044d565b5050565b601f821115620004be57620004888162000332565b620004938462000347565b81016020851015620004a3578190505b620004bb620004b28562000347565b8301826200044c565b50505b505050565b600082821c905092915050565b6000620004e360001984600802620004c3565b1980831691505092915050565b6000620004fe8383620004d0565b9150826002028217905092915050565b620005198262000294565b67ffffffffffffffff8111156200053557620005346200029f565b5b620005418254620002fd565b6200054e82828562000473565b600060209050601f83116001811462000586576000841562000571578287015190505b6200057d8582620004f0565b865550620005ed565b601f198416620005968662000332565b60005b82811015620005c05784890151825560018201915060208501945060208101905062000599565b86831015620005e05784890151620005dc601f891682620004d0565b8355505b6001600288020188555050505b505050505050565b612a3180620006056000396000f3fe608060405234801561001057600080fd5b50600436106101165760003560e01c806370a08231116100a2578063a22cb46511610071578063a22cb465146102cb578063b88d4fde146102e7578063c87b56dd14610303578063e985e9c514610333578063f2fde38b1461036357610116565b806370a0823114610255578063715018a6146102855780638da5cb5b1461028f57806395d89b41146102ad57610116565b806323b872dd116100e957806323b872dd146101b557806340d097c3146101d157806342842e0e146101ed578063521c62c2146102095780636352211e1461022557610116565b806301ffc9a71461011b57806306fdde031461014b578063081812fc14610169578063095ea7b314610199575b600080fd5b610135600480360381019061013091906119dc565b61037f565b6040516101429190611a24565b60405180910390f35b610153610461565b6040516101609190611acf565b60405180910390f35b610183600480360381019061017e9190611b27565b6104f3565b6040516101909190611b95565b60405180910390f35b6101b360048036038101906101ae9190611bdc565b610539565b005b6101cf60048036038101906101ca9190611c1c565b610650565b005b6101eb60048036038101906101e69190611c6f565b6106b0565b005b61020760048036038101906102029190611c1c565b6106de565b005b610223600480360381019061021e9190611b27565b6106fe565b005b61023f600480360381019061023a9190611b27565b6107ae565b60405161024c9190611b95565b60405180910390f35b61026f600480360381019061026a9190611c6f565b61085f565b60405161027c9190611cab565b60405180910390f35b61028d610916565b005b61029761092a565b6040516102a49190611b95565b60405180910390f35b6102b5610954565b6040516102c29190611acf565b60405180910390f35b6102e560048036038101906102e09190611cf2565b6109e6565b005b61030160048036038101906102fc9190611e67565b6109fc565b005b61031d60048036038101906103189190611b27565b610a5e565b60405161032a9190611acf565b60405180910390f35b61034d60048036038101906103489190611eea565b610ac6565b60405161035a9190611a24565b60405180910390f35b61037d60048036038101906103789190611c6f565b610b5a565b005b60007f80ac58cd000000000000000000000000000000000000000000000000000000007bffffffffffffffffffffffffffffffffffffffffffffffffffffffff1916827bffffffffffffffffffffffffffffffffffffffffffffffffffffffff1916148061044a57507f5b5e139f000000000000000000000000000000000000000000000000000000007bffffffffffffffffffffffffffffffffffffffffffffffffffffffff1916827bffffffffffffffffffffffffffffffffffffffffffffffffffffffff1916145b8061045a575061045982610bdd565b5b9050919050565b60606000805461047090611f59565b80601f016020809104026020016040519081016040528092919081815260200182805461049c90611f59565b80156104e95780601f106104be576101008083540402835291602001916104e9565b820191906000526020600020905b8154815290600101906020018083116104cc57829003601f168201915b5050505050905090565b60006104fe82610c47565b6004600083815260200190815260200160002060009054906101000a900473ffffffffffffffffffffffffffffffffffffffff169050919050565b6000610544826107ae565b90508073ffffffffffffffffffffffffffffffffffffffff168373ffffffffffffffffffffffffffffffffffffffff16036105b4576040517f08c379a00000000000000000000000000000000000000000000000000000000081526004016105ab90611ffc565b60405180910390fd5b8073ffffffffffffffffffffffffffffffffffffffff166105d3610c92565b73ffffffffffffffffffffffffffffffffffffffff1614806106025750610601816105fc610c92565b610ac6565b5b610641576040517f08c379a00000000000000000000000000000000000000000000000000000000081526004016106389061208e565b60405180910390fd5b61064b8383610c9a565b505050565b61066161065b610c92565b82610d53565b6106a0576040517f08c379a000000000000000000000000000000000000000000000000000000000815260040161069790612120565b60405180910390fd5b6106ab838383610de8565b505050565b6106b861104e565b60006106c460086110cc565b90506106d060086110da565b6106da82826110f0565b5050565b6106f9838383604051806020016040528060008152506109fc565b505050565b61070661104e565b600015156007826003811061071e5761071d612140565b5b602091828204019190069054906101000a900460ff16151514610776576040517f08c379a000000000000000000000000000000000000000000000000000000000815260040161076d906121e1565b60405180910390fd5b60016007826003811061078c5761078b612140565b5b602091828204019190066101000a81548160ff02191690831515021790555050565b6000806002600084815260200190815260200160002060009054906101000a900473ffffffffffffffffffffffffffffffffffffffff169050600073ffffffffffffffffffffffffffffffffffffffff168173ffffffffffffffffffffffffffffffffffffffff1603610856576040517f08c379a000000000000000000000000000000000000000000000000000000000815260040161084d9061224d565b60405180910390fd5b80915050919050565b60008073ffffffffffffffffffffffffffffffffffffffff168273ffffffffffffffffffffffffffffffffffffffff16036108cf576040517f08c379a00000000000000000000000000000000000000000000000000000000081526004016108c6906122df565b60405180910390fd5b600360008373ffffffffffffffffffffffffffffffffffffffff1673ffffffffffffffffffffffffffffffffffffffff168152602001908152602001600020549050919050565b61091e61104e565b610928600061110e565b565b6000600660009054906101000a900473ffffffffffffffffffffffffffffffffffffffff16905090565b60606001805461096390611f59565b80601f016020809104026020016040519081016040528092919081815260200182805461098f90611f59565b80156109dc5780601f106109b1576101008083540402835291602001916109dc565b820191906000526020600020905b8154815290600101906020018083116109bf57829003601f168201915b5050505050905090565b6109f86109f1610c92565b83836111d4565b5050565b610a0d610a07610c92565b83610d53565b610a4c576040517f08c379a0000000000000000000000000000000000000000000000000000000008152600401610a4390612120565b60405180910390fd5b610a5884848484611340565b50505050565b6060610a6982610c47565b6000610a7361139c565b90506000815111610a935760405180602001604052806000815250610abe565b80610a9d846113bc565b604051602001610aae92919061233b565b6040516020818303038152906040525b915050919050565b6000600560008473ffffffffffffffffffffffffffffffffffffffff1673ffffffffffffffffffffffffffffffffffffffff16815260200190815260200160002060008373ffffffffffffffffffffffffffffffffffffffff1673ffffffffffffffffffffffffffffffffffffffff16815260200190815260200160002060009054906101000a900460ff16905092915050565b610b6261104e565b600073ffffffffffffffffffffffffffffffffffffffff168173ffffffffffffffffffffffffffffffffffffffff1603610bd1576040517f08c379a0000000000000000000000000000000000000000000000000000000008152600401610bc8906123d1565b60405180910390fd5b610bda8161110e565b50565b60007f01ffc9a7000000000000000000000000000000000000000000000000000000007bffffffffffffffffffffffffffffffffffffffffffffffffffffffff1916827bffffffffffffffffffffffffffffffffffffffffffffffffffffffff1916149050919050565b610c508161151c565b610c8f576040517f08c379a0000000000000000000000000000000000000000000000000000000008152600401610c869061224d565b60405180910390fd5b50565b600033905090565b816004600083815260200190815260200160002060006101000a81548173ffffffffffffffffffffffffffffffffffffffff021916908373ffffffffffffffffffffffffffffffffffffffff160217905550808273ffffffffffffffffffffffffffffffffffffffff16610d0d836107ae565b73ffffffffffffffffffffffffffffffffffffffff167f8c5be1e5ebec7d5bd14f71427d1e84f3dd0314c0f7b2291e5b200ac8c7c3b92560405160405180910390a45050565b600080610d5f836107ae565b90508073ffffffffffffffffffffffffffffffffffffffff168473ffffffffffffffffffffffffffffffffffffffff161480610da15750610da08185610ac6565b5b80610ddf57508373ffffffffffffffffffffffffffffffffffffffff16610dc7846104f3565b73ffffffffffffffffffffffffffffffffffffffff16145b91505092915050565b8273ffffffffffffffffffffffffffffffffffffffff16610e08826107ae565b73ffffffffffffffffffffffffffffffffffffffff1614610e5e576040517f08c379a0000000000000000000000000000000000000000000000000000000008152600401610e5590612463565b60405180910390fd5b600073ffffffffffffffffffffffffffffffffffffffff168273ffffffffffffffffffffffffffffffffffffffff1603610ecd576040517f08c379a0000000000000000000000000000000000000000000000000000000008152600401610ec4906124f5565b60405180910390fd5b610ed8838383611588565b610ee3600082610c9a565b6001600360008573ffffffffffffffffffffffffffffffffffffffff1673ffffffffffffffffffffffffffffffffffffffff1681526020019081526020016000206000828254610f339190612544565b925050819055506001600360008473ffffffffffffffffffffffffffffffffffffffff1673ffffffffffffffffffffffffffffffffffffffff1681526020019081526020016000206000828254610f8a9190612578565b92505081905550816002600083815260200190815260200160002060006101000a81548173ffffffffffffffffffffffffffffffffffffffff021916908373ffffffffffffffffffffffffffffffffffffffff160217905550808273ffffffffffffffffffffffffffffffffffffffff168473ffffffffffffffffffffffffffffffffffffffff167fddf252ad1be2c89b69c2b068fc378daa952ba7f163c4a11628f55a4df523b3ef60405160405180910390a461104983838361158d565b505050565b611056610c92565b73ffffffffffffffffffffffffffffffffffffffff1661107461092a565b73ffffffffffffffffffffffffffffffffffffffff16146110ca576040517f08c379a00000000000000000000000000000000000000000000000000000000081526004016110c1906125f8565b60405180910390fd5b565b600081600001549050919050565b6001816000016000828254019250508190555050565b61110a828260405180602001604052806000815250611592565b5050565b6000600660009054906101000a900473ffffffffffffffffffffffffffffffffffffffff16905081600660006101000a81548173ffffffffffffffffffffffffffffffffffffffff021916908373ffffffffffffffffffffffffffffffffffffffff1602179055508173ffffffffffffffffffffffffffffffffffffffff168173ffffffffffffffffffffffffffffffffffffffff167f8be0079c531659141344cd1fd0a4f28419497f9722a3daafe3b4186f6b6457e060405160405180910390a35050565b8173ffffffffffffffffffffffffffffffffffffffff168373ffffffffffffffffffffffffffffffffffffffff1603611242576040517f08c379a000000000000000000000000000000000000000000000000000000000815260040161123990612664565b60405180910390fd5b80600560008573ffffffffffffffffffffffffffffffffffffffff1673ffffffffffffffffffffffffffffffffffffffff16815260200190815260200160002060008473ffffffffffffffffffffffffffffffffffffffff1673ffffffffffffffffffffffffffffffffffffffff16815260200190815260200160002060006101000a81548160ff0219169083151502179055508173ffffffffffffffffffffffffffffffffffffffff168373ffffffffffffffffffffffffffffffffffffffff167f17307eab39ab6107e8899845ad3d59bd9653f200f220920489ca2b5937696c31836040516113339190611a24565b60405180910390a3505050565b61134b848484610de8565b611357848484846115ed565b611396576040517f08c379a000000000000000000000000000000000000000000000000000000000815260040161138d906126f6565b60405180910390fd5b50505050565b60606040518060800160405280605181526020016129ab60519139905090565b606060008203611403576040518060400160405280600181526020017f30000000000000000000000000000000000000000000000000000000000000008152509050611517565b600082905060005b6000821461143557808061141e90612716565b915050600a8261142e919061278d565b915061140b565b60008167ffffffffffffffff81111561145157611450611d3c565b5b6040519080825280601f01601f1916602001820160405280156114835781602001600182028036833780820191505090505b5090505b600085146115105760018261149c9190612544565b9150600a856114ab91906127be565b60306114b79190612578565b60f81b8183815181106114cd576114cc612140565b5b60200101907effffffffffffffffffffffffffffffffffffffffffffffffffffffffffffff1916908160001a905350600a85611509919061278d565b9450611487565b8093505050505b919050565b60008073ffffffffffffffffffffffffffffffffffffffff166002600084815260200190815260200160002060009054906101000a900473ffffffffffffffffffffffffffffffffffffffff1673ffffffffffffffffffffffffffffffffffffffff1614159050919050565b505050565b505050565b61159c8383611774565b6115a960008484846115ed565b6115e8576040517f08c379a00000000000000000000000000000000000000000000000000000000081526004016115df906126f6565b60405180910390fd5b505050565b600061160e8473ffffffffffffffffffffffffffffffffffffffff1661194d565b15611767578373ffffffffffffffffffffffffffffffffffffffff1663150b7a02611637610c92565b8786866040518563ffffffff1660e01b81526004016116599493929190612844565b6020604051808303816000875af192505050801561169557506040513d601f19601f8201168201806040525081019061169291906128a5565b60015b611717573d80600081146116c5576040519150601f19603f3d011682016040523d82523d6000602084013e6116ca565b606091505b50600081510361170f576040517f08c379a0000000000000000000000000000000000000000000000000000000008152600401611706906126f6565b60405180910390fd5b805181602001fd5b63150b7a0260e01b7bffffffffffffffffffffffffffffffffffffffffffffffffffffffff1916817bffffffffffffffffffffffffffffffffffffffffffffffffffffffff19161491505061176c565b600190505b949350505050565b600073ffffffffffffffffffffffffffffffffffffffff168273ffffffffffffffffffffffffffffffffffffffff16036117e3576040517f08c379a00000000000000000000000000000000000000000000000000000000081526004016117da9061291e565b60405180910390fd5b6117ec8161151c565b1561182c576040517f08c379a00000000000000000000000000000000000000000000000000000000081526004016118239061298a565b60405180910390fd5b61183860008383611588565b6001600360008473ffffffffffffffffffffffffffffffffffffffff1673ffffffffffffffffffffffffffffffffffffffff16815260200190815260200160002060008282546118889190612578565b92505081905550816002600083815260200190815260200160002060006101000a81548173ffffffffffffffffffffffffffffffffffffffff021916908373ffffffffffffffffffffffffffffffffffffffff160217905550808273ffffffffffffffffffffffffffffffffffffffff16600073ffffffffffffffffffffffffffffffffffffffff167fddf252ad1be2c89b69c2b068fc378daa952ba7f163c4a11628f55a4df523b3ef60405160405180910390a46119496000838361158d565b5050565b6000808273ffffffffffffffffffffffffffffffffffffffff163b119050919050565b6000604051905090565b600080fd5b600080fd5b60007fffffffff0000000000000000000000000000000000000000000000000000000082169050919050565b6119b981611984565b81146119c457600080fd5b50565b6000813590506119d6816119b0565b92915050565b6000602082840312156119f2576119f161197a565b5b6000611a00848285016119c7565b91505092915050565b60008115159050919050565b611a1e81611a09565b82525050565b6000602082019050611a396000830184611a15565b92915050565b600081519050919050565b600082825260208201905092915050565b60005b83811015611a79578082015181840152602081019050611a5e565b60008484015250505050565b6000601f19601f8301169050919050565b6000611aa182611a3f565b611aab8185611a4a565b9350611abb818560208601611a5b565b611ac481611a85565b840191505092915050565b60006020820190508181036000830152611ae98184611a96565b905092915050565b6000819050919050565b611b0481611af1565b8114611b0f57600080fd5b50565b600081359050611b2181611afb565b92915050565b600060208284031215611b3d57611b3c61197a565b5b6000611b4b84828501611b12565b91505092915050565b600073ffffffffffffffffffffffffffffffffffffffff82169050919050565b6000611b7f82611b54565b9050919050565b611b8f81611b74565b82525050565b6000602082019050611baa6000830184611b86565b92915050565b611bb981611b74565b8114611bc457600080fd5b50565b600081359050611bd681611bb0565b92915050565b60008060408385031215611bf357611bf261197a565b5b6000611c0185828601611bc7565b9250506020611c1285828601611b12565b9150509250929050565b600080600060608486031215611c3557611c3461197a565b5b6000611c4386828701611bc7565b9350506020611c5486828701611bc7565b9250506040611c6586828701611b12565b9150509250925092565b600060208284031215611c8557611c8461197a565b5b6000611c9384828501611bc7565b91505092915050565b611ca581611af1565b82525050565b6000602082019050611cc06000830184611c9c565b92915050565b611ccf81611a09565b8114611cda57600080fd5b50565b600081359050611cec81611cc6565b92915050565b60008060408385031215611d0957611d0861197a565b5b6000611d1785828601611bc7565b9250506020611d2885828601611cdd565b9150509250929050565b600080fd5b600080fd5b7f4e487b7100000000000000000000000000000000000000000000000000000000600052604160045260246000fd5b611d7482611a85565b810181811067ffffffffffffffff82111715611d9357611d92611d3c565b5b80604052505050565b6000611da6611970565b9050611db28282611d6b565b919050565b600067ffffffffffffffff821115611dd257611dd1611d3c565b5b611ddb82611a85565b9050602081019050919050565b82818337600083830152505050565b6000611e0a611e0584611db7565b611d9c565b905082815260208101848484011115611e2657611e25611d37565b5b611e31848285611de8565b509392505050565b600082601f830112611e4e57611e4d611d32565b5b8135611e5e848260208601611df7565b91505092915050565b60008060008060808587031215611e8157611e8061197a565b5b6000611e8f87828801611bc7565b9450506020611ea087828801611bc7565b9350506040611eb187828801611b12565b925050606085013567ffffffffffffffff811115611ed257611ed161197f565b5b611ede87828801611e39565b91505092959194509250565b60008060408385031215611f0157611f0061197a565b5b6000611f0f85828601611bc7565b9250506020611f2085828601611bc7565b9150509250929050565b7f4e487b7100000000000000000000000000000000000000000000000000000000600052602260045260246000fd5b60006002820490506001821680611f7157607f821691505b602082108103611f8457611f83611f2a565b5b50919050565b7f4552433732313a20617070726f76616c20746f2063757272656e74206f776e6560008201527f7200000000000000000000000000000000000000000000000000000000000000602082015250565b6000611fe6602183611a4a565b9150611ff182611f8a565b604082019050919050565b6000602082019050818103600083015261201581611fd9565b9050919050565b7f4552433732313a20617070726f76652063616c6c6572206973206e6f7420746f60008201527f6b656e206f776e6572206e6f7220617070726f76656420666f7220616c6c0000602082015250565b6000612078603e83611a4a565b91506120838261201c565b604082019050919050565b600060208201905081810360008301526120a78161206b565b9050919050565b7f4552433732313a2063616c6c6572206973206e6f7420746f6b656e206f776e6560008201527f72206e6f7220617070726f766564000000000000000000000000000000000000602082015250565b600061210a602e83611a4a565b9150612115826120ae565b604082019050919050565b60006020820190508181036000830152612139816120fd565b9050919050565b7f4e487b7100000000000000000000000000000000000000000000000000000000600052603260045260246000fd5b7f45737465204e4654207961206675652063616e6a6561646f2c206e6f2073652060008201527f70756564652075736172206d61732e0000000000000000000000000000000000602082015250565b60006121cb602f83611a4a565b91506121d68261216f565b604082019050919050565b600060208201905081810360008301526121fa816121be565b9050919050565b7f4552433732313a20696e76616c696420746f6b656e2049440000000000000000600082015250565b6000612237601883611a4a565b915061224282612201565b602082019050919050565b600060208201905081810360008301526122668161222a565b9050919050565b7f4552433732313a2061646472657373207a65726f206973206e6f74206120766160008201527f6c6964206f776e65720000000000000000000000000000000000000000000000602082015250565b60006122c9602983611a4a565b91506122d48261226d565b604082019050919050565b600060208201905081810360008301526122f8816122bc565b9050919050565b600081905092915050565b600061231582611a3f565b61231f81856122ff565b935061232f818560208601611a5b565b80840191505092915050565b6000612347828561230a565b9150612353828461230a565b91508190509392505050565b7f4f776e61626c653a206e6577206f776e657220697320746865207a65726f206160008201527f6464726573730000000000000000000000000000000000000000000000000000602082015250565b60006123bb602683611a4a565b91506123c68261235f565b604082019050919050565b600060208201905081810360008301526123ea816123ae565b9050919050565b7f4552433732313a207472616e736665722066726f6d20696e636f72726563742060008201527f6f776e6572000000000000000000000000000000000000000000000000000000602082015250565b600061244d602583611a4a565b9150612458826123f1565b604082019050919050565b6000602082019050818103600083015261247c81612440565b9050919050565b7f4552433732313a207472616e7366657220746f20746865207a65726f2061646460008201527f7265737300000000000000000000000000000000000000000000000000000000602082015250565b60006124df602483611a4a565b91506124ea82612483565b604082019050919050565b6000602082019050818103600083015261250e816124d2565b9050919050565b7f4e487b7100000000000000000000000000000000000000000000000000000000600052601160045260246000fd5b600061254f82611af1565b915061255a83611af1565b925082820390508181111561257257612571612515565b5b92915050565b600061258382611af1565b915061258e83611af1565b92508282019050808211156125a6576125a5612515565b5b92915050565b7f4f776e61626c653a2063616c6c6572206973206e6f7420746865206f776e6572600082015250565b60006125e2602083611a4a565b91506125ed826125ac565b602082019050919050565b60006020820190508181036000830152612611816125d5565b9050919050565b7f4552433732313a20617070726f766520746f2063616c6c657200000000000000600082015250565b600061264e601983611a4a565b915061265982612618565b602082019050919050565b6000602082019050818103600083015261267d81612641565b9050919050565b7f4552433732313a207472616e7366657220746f206e6f6e20455243373231526560008201527f63656976657220696d706c656d656e7465720000000000000000000000000000602082015250565b60006126e0603283611a4a565b91506126eb82612684565b604082019050919050565b6000602082019050818103600083015261270f816126d3565b9050919050565b600061272182611af1565b91507fffffffffffffffffffffffffffffffffffffffffffffffffffffffffffffffff820361275357612752612515565b5b600182019050919050565b7f4e487b7100000000000000000000000000000000000000000000000000000000600052601260045260246000fd5b600061279882611af1565b91506127a383611af1565b9250826127b3576127b261275e565b5b828204905092915050565b60006127c982611af1565b91506127d483611af1565b9250826127e4576127e361275e565b5b828206905092915050565b600081519050919050565b600082825260208201905092915050565b6000612816826127ef565b61282081856127fa565b9350612830818560208601611a5b565b61283981611a85565b840191505092915050565b60006080820190506128596000830187611b86565b6128666020830186611b86565b6128736040830185611c9c565b8181036060830152612885818461280b565b905095945050505050565b60008151905061289f816119b0565b92915050565b6000602082840312156128bb576128ba61197a565b5b60006128c984828501612890565b91505092915050565b7f4552433732313a206d696e7420746f20746865207a65726f2061646472657373600082015250565b6000612908602083611a4a565b9150612913826128d2565b602082019050919050565b60006020820190508181036000830152612937816128fb565b9050919050565b7f4552433732313a20746f6b656e20616c7265616479206d696e74656400000000600082015250565b6000612974601c83611a4a565b915061297f8261293e565b602082019050919050565b600060208201905081810360008301526129a381612967565b905091905056fe68747470733a2f2f676174657761792e70696e6174612e636c6f75642f697066732f516d5a73513833697a4e445046474c3241775335715664366d4d42726956325031616954624e516e35543650577a2fa264697066735822122085924fc084fabce43740bce1d45fc98670b36a4ac75471ebe2be485ed6167e3164736f6c63430008110033",
  "immutableReferences": {},
  "source": "// SPDX-License-Identifier: MIT\npragma solidity >=0.4.22 <0.9.0;\n\nimport \"@openzeppelin/contracts/token/ERC721/ERC721.sol\";\nimport \"@openzeppelin/contracts/access/Ownable.sol\";\nimport \"@openzeppelin/contracts/utils/Counters.sol\";\n\ncontract AscendNFT is ERC721, Ownable {\n\n    bool[3] isUsed = [false, false, false];\n    \n    using Counters for Counters.Counter;\n\n    Counters.Counter private _tokenIdCounter;\n\n    constructor() ERC721(\"AscendNFT\", \"ANFT\") {}\n\n    function _baseURI() internal pure override returns (string memory) {\n        return \"https://gateway.pinata.cloud/ipfs/QmZsQ83izNDPFGL2AwS5qVd6mMBriV2P1aiTbNQn5T6PWz/\";\n    }\n\n    function safeMint(address to) public onlyOwner {\n        uint256 tokenId = _tokenIdCounter.current();\n        _tokenIdCounter.increment();\n        _safeMint(to, tokenId);\n    }\n\n    function canjearNFT(uint256 tokenId) public onlyOwner {\n        require(isUsed[tokenId] == false, \"Este NFT ya fue canjeado, no se puede usar mas.\");\n        isUsed[tokenId] = true;\n    }\n}",
  "sourcePath": "D:\\Proyectos\\Hackathon BBVA 2022\\SegundoSmartContract\\contracts\\AscendNFT.sol",
  "compiler": {
    "name": "solc",
    "version": "0.8.17+commit.8df45f5f.Emscripten.clang"
  },
  "schemaVersion": "3.4.10",
  "updatedAt": "2022-10-23T05:07:11.911Z",
  "devdoc": {
    "kind": "dev",
    "methods": {
      "approve(address,uint256)": {
        "details": "See {IERC721-approve}."
      },
      "balanceOf(address)": {
        "details": "See {IERC721-balanceOf}."
      },
      "getApproved(uint256)": {
        "details": "See {IERC721-getApproved}."
      },
      "isApprovedForAll(address,address)": {
        "details": "See {IERC721-isApprovedForAll}."
      },
      "name()": {
        "details": "See {IERC721Metadata-name}."
      },
      "owner()": {
        "details": "Returns the address of the current owner."
      },
      "ownerOf(uint256)": {
        "details": "See {IERC721-ownerOf}."
      },
      "renounceOwnership()": {
        "details": "Leaves the contract without owner. It will not be possible to call `onlyOwner` functions anymore. Can only be called by the current owner. NOTE: Renouncing ownership will leave the contract without an owner, thereby removing any functionality that is only available to the owner."
      },
      "safeTransferFrom(address,address,uint256)": {
        "details": "See {IERC721-safeTransferFrom}."
      },
      "safeTransferFrom(address,address,uint256,bytes)": {
        "details": "See {IERC721-safeTransferFrom}."
      },
      "setApprovalForAll(address,bool)": {
        "details": "See {IERC721-setApprovalForAll}."
      },
      "supportsInterface(bytes4)": {
        "details": "See {IERC165-supportsInterface}."
      },
      "symbol()": {
        "details": "See {IERC721Metadata-symbol}."
      },
      "tokenURI(uint256)": {
        "details": "See {IERC721Metadata-tokenURI}."
      },
      "transferFrom(address,address,uint256)": {
        "details": "See {IERC721-transferFrom}."
      },
      "transferOwnership(address)": {
        "details": "Transfers ownership of the contract to a new account (`newOwner`). Can only be called by the current owner."
      }
    },
    "version": 1
  },
  "userdoc": {
    "kind": "user",
    "methods": {},
    "version": 1
  }
}